{
  "contractName": "Rosca",
  "abi": [
    {
      "inputs": [
        {
          "internalType": "uint256",
          "name": "cycleTotal",
          "type": "uint256"
        },
        {
          "internalType": "uint256",
          "name": "participants",
          "type": "uint256"
        },
        {
          "internalType": "address payable",
          "name": "creator",
          "type": "address"
        },
        {
          "internalType": "string",
          "name": "descr",
          "type": "string"
        }
      ],
      "payable": false,
      "stateMutability": "nonpayable",
      "type": "constructor"
    },
    {
      "constant": true,
      "inputs": [
        {
          "internalType": "uint256",
          "name": "",
          "type": "uint256"
        }
      ],
      "name": "addresses",
      "outputs": [
        {
          "internalType": "address payable",
          "name": "",
          "type": "address"
        }
      ],
      "payable": false,
      "stateMutability": "view",
      "type": "function"
    },
    {
      "constant": true,
      "inputs": [],
      "name": "currentCycle",
      "outputs": [
        {
          "internalType": "uint256",
          "name": "",
          "type": "uint256"
        }
      ],
      "payable": false,
      "stateMutability": "view",
      "type": "function"
    },
    {
      "constant": true,
      "inputs": [],
      "name": "cycleContribution",
      "outputs": [
        {
          "internalType": "uint256",
          "name": "",
          "type": "uint256"
        }
      ],
      "payable": false,
      "stateMutability": "view",
      "type": "function"
    },
    {
      "constant": true,
      "inputs": [
        {
          "internalType": "uint256",
          "name": "",
          "type": "uint256"
        }
      ],
      "name": "cycles",
      "outputs": [
        {
          "internalType": "uint256",
          "name": "currentAmount",
          "type": "uint256"
        },
        {
          "internalType": "uint256",
          "name": "cycleAmount",
          "type": "uint256"
        },
        {
          "internalType": "bool",
          "name": "completed",
          "type": "bool"
        },
        {
          "internalType": "uint256",
          "name": "started",
          "type": "uint256"
        }
      ],
      "payable": false,
      "stateMutability": "view",
      "type": "function"
    },
    {
      "constant": true,
      "inputs": [],
      "name": "description",
      "outputs": [
        {
          "internalType": "string",
          "name": "",
          "type": "string"
        }
      ],
      "payable": false,
      "stateMutability": "view",
      "type": "function"
    },
    {
      "constant": true,
      "inputs": [],
      "name": "manager",
      "outputs": [
        {
          "internalType": "address payable",
          "name": "",
          "type": "address"
        }
      ],
      "payable": false,
      "stateMutability": "view",
      "type": "function"
    },
    {
      "constant": true,
      "inputs": [],
      "name": "nrOfParticipants",
      "outputs": [
        {
          "internalType": "uint256",
          "name": "",
          "type": "uint256"
        }
      ],
      "payable": false,
      "stateMutability": "view",
      "type": "function"
    },
    {
      "constant": true,
      "inputs": [
        {
          "internalType": "address",
          "name": "",
          "type": "address"
        }
      ],
      "name": "participants",
      "outputs": [
        {
          "internalType": "uint256",
          "name": "amount",
          "type": "uint256"
        },
        {
          "internalType": "bool",
          "name": "wonCycle",
          "type": "bool"
        },
        {
          "internalType": "bool",
          "name": "set",
          "type": "bool"
        }
      ],
      "payable": false,
      "stateMutability": "view",
      "type": "function"
    },
    {
      "constant": true,
      "inputs": [],
      "name": "timestamp",
      "outputs": [
        {
          "internalType": "uint256",
          "name": "",
          "type": "uint256"
        }
      ],
      "payable": false,
      "stateMutability": "view",
      "type": "function"
    },
    {
      "constant": true,
      "inputs": [],
      "name": "getSummary",
      "outputs": [
        {
          "components": [
            {
              "internalType": "address",
              "name": "manager",
              "type": "address"
            },
            {
              "internalType": "uint256",
              "name": "cycleContribution",
              "type": "uint256"
            },
            {
              "internalType": "uint256",
              "name": "nrOfParticipants",
              "type": "uint256"
            },
            {
              "internalType": "uint256",
              "name": "activeParticipants",
              "type": "uint256"
            },
            {
              "internalType": "uint256",
              "name": "currentCycle",
              "type": "uint256"
            },
            {
              "internalType": "uint256",
              "name": "timestamp",
              "type": "uint256"
            },
            {
              "internalType": "uint256",
              "name": "funds",
              "type": "uint256"
            },
            {
              "internalType": "uint256",
              "name": "fundsRequiredForCycle",
              "type": "uint256"
            },
            {
              "internalType": "address payable[]",
              "name": "participants",
              "type": "address[]"
            },
            {
              "internalType": "string",
              "name": "description",
              "type": "string"
            }
          ],
          "internalType": "struct Rosca.Summary",
          "name": "",
          "type": "tuple"
        }
      ],
      "payable": false,
      "stateMutability": "view",
      "type": "function"
    },
    {
      "constant": true,
      "inputs": [],
      "name": "getParticipants",
      "outputs": [
        {
          "internalType": "address payable[]",
          "name": "",
          "type": "address[]"
        }
      ],
      "payable": false,
      "stateMutability": "view",
      "type": "function"
    },
    {
      "constant": true,
      "inputs": [
        {
          "internalType": "uint256",
          "name": "cycleNr",
          "type": "uint256"
        }
      ],
      "name": "getCycle",
      "outputs": [
        {
          "internalType": "uint256",
          "name": "",
          "type": "uint256"
        },
        {
          "internalType": "uint256",
          "name": "",
          "type": "uint256"
        },
        {
          "internalType": "bool",
          "name": "",
          "type": "bool"
        },
        {
          "internalType": "uint256",
          "name": "",
          "type": "uint256"
        }
      ],
      "payable": false,
      "stateMutability": "view",
      "type": "function"
    },
    {
      "constant": false,
      "inputs": [],
      "name": "enter",
      "outputs": [],
      "payable": true,
      "stateMutability": "payable",
      "type": "function"
    },
    {
      "constant": false,
      "inputs": [],
      "name": "contribute",
      "outputs": [],
      "payable": true,
      "stateMutability": "payable",
      "type": "function"
    },
    {
      "constant": false,
      "inputs": [
        {
          "internalType": "uint256",
          "name": "participantBid",
          "type": "uint256"
        }
      ],
      "name": "bid",
      "outputs": [],
      "payable": false,
      "stateMutability": "nonpayable",
      "type": "function"
    },
    {
      "constant": false,
      "inputs": [],
      "name": "endCycle",
      "outputs": [],
      "payable": false,
      "stateMutability": "nonpayable",
      "type": "function"
    },
    {
      "constant": false,
      "inputs": [],
      "name": "resetCycle",
      "outputs": [],
      "payable": false,
      "stateMutability": "nonpayable",
      "type": "function"
    }
  ],
  "bytecode": "0x60806040523480156200001157600080fd5b5060405162002166380380620021668339818101604052620000379190810190620002c6565b8284816200004157fe5b0460008190555081600160006101000a81548173ffffffffffffffffffffffffffffffffffffffff021916908373ffffffffffffffffffffffffffffffffffffffff160217905550826002819055506000600381905550426004819055508060059080519060200190620000b792919062000163565b50620000c2620001ea565b60405180608001604052806000815260200186815260200160001515815260200142815250905060088190806001815401808255809150509060018203906000526020600020906005020160009091929091909150600082015181600001556020820151816001015560408201518160020160006101000a81548160ff0219169083151502179055506060820151816003015550505050505050506200044e565b828054600181600116156101000203166002900490600052602060002090601f016020900481019282601f10620001a657805160ff1916838001178555620001d7565b82800160010185558215620001d7579182015b82811115620001d6578251825591602001919060010190620001b9565b5b509050620001e6919062000214565b5090565b60405180608001604052806000815260200160008152602001600015158152602001600081525090565b6200023991905b80821115620002355760008160009055506001016200021b565b5090565b90565b6000815190506200024d816200041a565b92915050565b600082601f8301126200026557600080fd5b81516200027c620002768262000379565b6200034b565b915080825260208301602083018583830111156200029957600080fd5b620002a6838284620003e4565b50505092915050565b600081519050620002c08162000434565b92915050565b60008060008060808587031215620002dd57600080fd5b6000620002ed87828801620002af565b94505060206200030087828801620002af565b935050604062000313878288016200023c565b925050606085015167ffffffffffffffff8111156200033157600080fd5b6200033f8782880162000253565b91505092959194509250565b6000604051905081810181811067ffffffffffffffff821117156200036f57600080fd5b8060405250919050565b600067ffffffffffffffff8211156200039157600080fd5b601f19601f8301169050602081019050919050565b6000620003b382620003ba565b9050919050565b600073ffffffffffffffffffffffffffffffffffffffff82169050919050565b6000819050919050565b60005b8381101562000404578082015181840152602081019050620003e7565b8381111562000414576000848401525b50505050565b6200042581620003a6565b81146200043157600080fd5b50565b6200043f81620003da565b81146200044b57600080fd5b50565b611d08806200045e6000396000f3fe6080604052600436106100fe5760003560e01c80635aa68ac011610095578063b80777ea11610064578063b80777ea1461031b578063bab2f55214610346578063d7bb99ba14610371578063e97dcb621461037b578063edf26d9b14610385576100fe565b80635aa68ac01461026e5780637284e416146102995780639271c203146102c4578063afbce3b9146102db576100fe565b80634051ddac116100d15780634051ddac146101c4578063454a2ab3146101ef578063481c6a75146102185780634e49ad7814610243576100fe565b8063017e04bc14610103578063084a4faf1461012e57806309e69ede146101455780632026f63814610184575b600080fd5b34801561010f57600080fd5b506101186103c2565b6040516101259190611ac3565b60405180910390f35b34801561013a57600080fd5b506101436103c8565b005b34801561015157600080fd5b5061016c6004803603610167919081019061176f565b61082c565b60405161017b93929190611ade565b60405180910390f35b34801561019057600080fd5b506101ab60048036036101a69190810190611798565b610870565b6040516101bb9493929190611b15565b60405180910390f35b3480156101d057600080fd5b506101d961090e565b6040516101e69190611aa1565b60405180910390f35b3480156101fb57600080fd5b5061021660048036036102119190810190611798565b610af2565b005b34801561022457600080fd5b5061022d610c63565b60405161023a9190611a42565b60405180910390f35b34801561024f57600080fd5b50610258610c89565b6040516102659190611ac3565b60405180910390f35b34801561027a57600080fd5b50610283610c8f565b6040516102909190611a5d565b60405180910390f35b3480156102a557600080fd5b506102ae610d1d565b6040516102bb9190611a7f565b60405180910390f35b3480156102d057600080fd5b506102d9610dbb565b005b3480156102e757600080fd5b5061030260048036036102fd9190810190611798565b611196565b6040516103129493929190611b15565b60405180910390f35b34801561032757600080fd5b506103306111e0565b60405161033d9190611ac3565b60405180910390f35b34801561035257600080fd5b5061035b6111e6565b6040516103689190611ac3565b60405180910390f35b6103796111ec565b005b61038361139c565b005b34801561039157600080fd5b506103ac60048036036103a79190810190611798565b61160b565b6040516103b99190611a42565b60405180910390f35b60005481565b600254600354106103d857600080fd5b600160009054906101000a900473ffffffffffffffffffffffffffffffffffffffff1673ffffffffffffffffffffffffffffffffffffffff163373ffffffffffffffffffffffffffffffffffffffff161461043257600080fd5b60086003548154811061044157fe5b906000526020600020906005020160010154471461045e57600080fd5b6000809050600080600090505b6006805490508110156105f3578260086003548154811061048857fe5b90600052602060002090600502016004016000600684815481106104a857fe5b9060005260206000200160009054906101000a900473ffffffffffffffffffffffffffffffffffffffff1673ffffffffffffffffffffffffffffffffffffffff1673ffffffffffffffffffffffffffffffffffffffff1681526020019081526020016000205411156105e65760086003548154811061052357fe5b906000526020600020906005020160040160006006838154811061054357fe5b9060005260206000200160009054906101000a900473ffffffffffffffffffffffffffffffffffffffff1673ffffffffffffffffffffffffffffffffffffffff1673ffffffffffffffffffffffffffffffffffffffff168152602001908152602001600020549250600681815481106105b857fe5b9060005260206000200160009054906101000a900473ffffffffffffffffffffffffffffffffffffffff1691505b808060010191505061046b565b50600082141561062357600160009054906101000a900473ffffffffffffffffffffffffffffffffffffffff1690505b8160005401600760008373ffffffffffffffffffffffffffffffffffffffff1673ffffffffffffffffffffffffffffffffffffffff168152602001908152602001600020600001819055506001600760008373ffffffffffffffffffffffffffffffffffffffff1673ffffffffffffffffffffffffffffffffffffffff16815260200190815260200160002060010160006101000a81548160ff0219169083151502179055508073ffffffffffffffffffffffffffffffffffffffff166108fc479081150290604051600060405180830381858888f1935050505015801561070f573d6000803e3d6000fd5b50600160086003548154811061072157fe5b906000526020600020906005020160020160006101000a81548160ff02191690831515021790555060025460035410156108285761075d611647565b6040518060800160405280600081526020018460086003548154811061077f57fe5b90600052602060002090600502016001015401815260200160001515815260200142815250905060088190806001815401808255809150509060018203906000526020600020906005020160009091929091909150600082015181600001556020820151816001015560408201518160020160006101000a81548160ff021916908315150217905550606082015181600301555050506001600360008282540192505081905550505b5050565b60076020528060005260406000206000915090508060000154908060010160009054906101000a900460ff16908060010160019054906101000a900460ff16905083565b6000806000806008858154811061088357fe5b906000526020600020906005020160000154600886815481106108a257fe5b906000526020600020906005020160010154600887815481106108c157fe5b906000526020600020906005020160020160009054906101000a900460ff16600888815481106108ed57fe5b90600052602060002090600502016003015493509350935093509193509193565b610916611671565b61091e611671565b604051806101400160405280600160009054906101000a900473ffffffffffffffffffffffffffffffffffffffff1673ffffffffffffffffffffffffffffffffffffffff168152602001600054815260200160025481526020016006805490508152602001600354815260200160045481526020014781526020016008600354815481106109a857fe5b90600052602060002090600502016001015481526020016006805480602002602001604051908101604052809291908181526020018280548015610a4157602002820191906000526020600020905b8160009054906101000a900473ffffffffffffffffffffffffffffffffffffffff1673ffffffffffffffffffffffffffffffffffffffff16815260200190600101908083116109f7575b5050505050815260200160058054600181600116156101000203166002900480601f016020809104026020016040519081016040528092919081815260200182805460018160011615610100020316600290048015610ae15780601f10610ab657610100808354040283529160200191610ae1565b820191906000526020600020905b815481529060010190602001808311610ac457829003601f168201915b505050505081525090508091505090565b60025460035410610b0257600080fd5b600860035481548110610b1157fe5b9060005260206000209060050201600101544714610b2e57600080fd5b600760003373ffffffffffffffffffffffffffffffffffffffff1673ffffffffffffffffffffffffffffffffffffffff16815260200190815260200160002060010160019054906101000a900460ff16610b8757600080fd5b6000600860035481548110610b9857fe5b906000526020600020906005020160040160003373ffffffffffffffffffffffffffffffffffffffff1673ffffffffffffffffffffffffffffffffffffffff1681526020019081526020016000205414610bf157600080fd5b60008111610bfe57600080fd5b80600860035481548110610c0e57fe5b906000526020600020906005020160040160003373ffffffffffffffffffffffffffffffffffffffff1673ffffffffffffffffffffffffffffffffffffffff1681526020019081526020016000208190555050565b600160009054906101000a900473ffffffffffffffffffffffffffffffffffffffff1681565b60025481565b60606006805480602002602001604051908101604052809291908181526020018280548015610d1357602002820191906000526020600020905b8160009054906101000a900473ffffffffffffffffffffffffffffffffffffffff1673ffffffffffffffffffffffffffffffffffffffff1681526020019060010190808311610cc9575b5050505050905090565b60058054600181600116156101000203166002900480601f016020809104026020016040519081016040528092919081815260200182805460018160011615610100020316600290048015610db35780601f10610d8857610100808354040283529160200191610db3565b820191906000526020600020905b815481529060010190602001808311610d9657829003601f168201915b505050505081565b600160009054906101000a900473ffffffffffffffffffffffffffffffffffffffff1673ffffffffffffffffffffffffffffffffffffffff163373ffffffffffffffffffffffffffffffffffffffff1614610e1557600080fd5b60008090505b60068054905081101561111a5760006007600060068481548110610e3b57fe5b9060005260206000200160009054906101000a900473ffffffffffffffffffffffffffffffffffffffff1673ffffffffffffffffffffffffffffffffffffffff1673ffffffffffffffffffffffffffffffffffffffff168152602001908152602001600020600201600060035481526020019081526020016000205411156110585760068181548110610eca57fe5b9060005260206000200160009054906101000a900473ffffffffffffffffffffffffffffffffffffffff1673ffffffffffffffffffffffffffffffffffffffff166108fc6007600060068581548110610f1f57fe5b9060005260206000200160009054906101000a900473ffffffffffffffffffffffffffffffffffffffff1673ffffffffffffffffffffffffffffffffffffffff1673ffffffffffffffffffffffffffffffffffffffff16815260200190815260200160002060020160006003548152602001908152602001600020549081150290604051600060405180830381858888f19350505050158015610fc6573d6000803e3d6000fd5b506007600060068381548110610fd857fe5b9060005260206000200160009054906101000a900473ffffffffffffffffffffffffffffffffffffffff1673ffffffffffffffffffffffffffffffffffffffff1673ffffffffffffffffffffffffffffffffffffffff16815260200190815260200160002060020160006003548152602001908152602001600020600090555b6000600354141561110d57600760006006838154811061107457fe5b9060005260206000200160009054906101000a900473ffffffffffffffffffffffffffffffffffffffff1673ffffffffffffffffffffffffffffffffffffffff1673ffffffffffffffffffffffffffffffffffffffff1681526020019081526020016000206000808201600090556001820160006101000a81549060ff02191690556001820160016101000a81549060ff021916905550505b8080600101915050610e1b565b5060006003541415611135576006600061113491906116da565b5b600060086003548154811061114657fe5b906000526020600020906005020160000181905550600060086003548154811061116c57fe5b906000526020600020906005020160020160006101000a81548160ff021916908315150217905550565b600881815481106111a357fe5b90600052602060002090600502016000915090508060000154908060010154908060020160009054906101000a900460ff16908060030154905084565b60045481565b60035481565b600254600354106111fc57600080fd5b600760003373ffffffffffffffffffffffffffffffffffffffff1673ffffffffffffffffffffffffffffffffffffffff1681526020019081526020016000206000015434101561124b57600080fd5b600760003373ffffffffffffffffffffffffffffffffffffffff1673ffffffffffffffffffffffffffffffffffffffff16815260200190815260200160002060010160019054906101000a900460ff166112a457600080fd5b6000600760003373ffffffffffffffffffffffffffffffffffffffff1673ffffffffffffffffffffffffffffffffffffffff16815260200190815260200160002060020160006003548152602001908152602001600020541461130657600080fd5b60063390806001815401808255809150509060018203906000526020600020016000909192909190916101000a81548173ffffffffffffffffffffffffffffffffffffffff021916908373ffffffffffffffffffffffffffffffffffffffff160217905550503460086003548154811061137c57fe5b906000526020600020906005020160000160008282540192505081905550565b6000600354146113ab57600080fd5b6000543410156113ba57600080fd5b600760003373ffffffffffffffffffffffffffffffffffffffff1673ffffffffffffffffffffffffffffffffffffffff16815260200190815260200160002060010160019054906101000a900460ff161561141457600080fd5b60086003548154811061142357fe5b90600052602060002090600502016001015460086003548154811061144457fe5b9060005260206000209060050201600001541061146057600080fd5b6114686116fb565b6040518060600160405280600054815260200160001515815260200160011515815250905060063390806001815401808255809150509060018203906000526020600020016000909192909190916101000a81548173ffffffffffffffffffffffffffffffffffffffff021916908373ffffffffffffffffffffffffffffffffffffffff1602179055505080600760003373ffffffffffffffffffffffffffffffffffffffff1673ffffffffffffffffffffffffffffffffffffffff1681526020019081526020016000206000820151816000015560208201518160010160006101000a81548160ff02191690831515021790555060408201518160010160016101000a81548160ff02191690831515021790555090505034600760003373ffffffffffffffffffffffffffffffffffffffff1673ffffffffffffffffffffffffffffffffffffffff1681526020019081526020016000206002016000600354815260200190815260200160002081905550346008600354815481106115ea57fe5b90600052602060002090600502016000016000828254019250508190555050565b6006818154811061161857fe5b906000526020600020016000915054906101000a900473ffffffffffffffffffffffffffffffffffffffff1681565b60405180608001604052806000815260200160008152602001600015158152602001600081525090565b604051806101400160405280600073ffffffffffffffffffffffffffffffffffffffff1681526020016000815260200160008152602001600081526020016000815260200160008152602001600081526020016000815260200160608152602001606081525090565b50805460008255906000526020600020908101906116f89190611720565b50565b6040518060600160405280600081526020016000151581526020016000151581525090565b61174291905b8082111561173e576000816000905550600101611726565b5090565b90565b60008135905061175481611c97565b92915050565b60008135905061176981611cae565b92915050565b60006020828403121561178157600080fd5b600061178f84828501611745565b91505092915050565b6000602082840312156117aa57600080fd5b60006117b88482850161175a565b91505092915050565b60006117cd83836117d9565b60208301905092915050565b6117e281611c0b565b82525050565b6117f181611c0b565b82525050565b61180081611bf9565b82525050565b600061181182611b85565b61181b8185611bc6565b935061182683611b6a565b8060005b8381101561185757815161183e88826117c1565b975061184983611ba8565b92505060018101905061182a565b5085935050505092915050565b600061186f82611b7a565b6118798185611bb5565b935061188483611b5a565b8060005b838110156118b557815161189c88826117c1565b97506118a783611b9b565b925050600181019050611888565b5085935050505092915050565b6118cb81611c1d565b82525050565b60006118dc82611b90565b6118e68185611bd7565b93506118f6818560208601611c53565b6118ff81611c86565b840191505092915050565b600061191582611b90565b61191f8185611be8565b935061192f818560208601611c53565b61193881611c86565b840191505092915050565b60006101408301600083015161195c60008601826117f7565b50602083015161196f6020860182611a24565b5060408301516119826040860182611a24565b5060608301516119956060860182611a24565b5060808301516119a86080860182611a24565b5060a08301516119bb60a0860182611a24565b5060c08301516119ce60c0860182611a24565b5060e08301516119e160e0860182611a24565b506101008301518482036101008601526119fb8282611864565b915050610120830151848203610120860152611a1782826118d1565b9150508091505092915050565b611a2d81611c49565b82525050565b611a3c81611c49565b82525050565b6000602082019050611a5760008301846117e8565b92915050565b60006020820190508181036000830152611a778184611806565b905092915050565b60006020820190508181036000830152611a99818461190a565b905092915050565b60006020820190508181036000830152611abb8184611943565b905092915050565b6000602082019050611ad86000830184611a33565b92915050565b6000606082019050611af36000830186611a33565b611b0060208301856118c2565b611b0d60408301846118c2565b949350505050565b6000608082019050611b2a6000830187611a33565b611b376020830186611a33565b611b4460408301856118c2565b611b516060830184611a33565b95945050505050565b6000819050602082019050919050565b6000819050602082019050919050565b600081519050919050565b600081519050919050565b600081519050919050565b6000602082019050919050565b6000602082019050919050565b600082825260208201905092915050565b600082825260208201905092915050565b600082825260208201905092915050565b600082825260208201905092915050565b6000611c0482611c29565b9050919050565b6000611c1682611c29565b9050919050565b60008115159050919050565b600073ffffffffffffffffffffffffffffffffffffffff82169050919050565b6000819050919050565b60005b83811015611c71578082015181840152602081019050611c56565b83811115611c80576000848401525b50505050565b6000601f19601f8301169050919050565b611ca081611bf9565b8114611cab57600080fd5b50565b611cb781611c49565b8114611cc257600080fd5b5056fea365627a7a72315820548406c5ea5f9941e5544abff137eff1b20641ccc76d62f966033913185e4b336c6578706572696d656e74616cf564736f6c63430005100040",
  "source": "pragma solidity >=0.4.25 <0.7.0;\npragma experimental ABIEncoderV2;\n\ncontract RoscaFactory {\n    Rosca[] public deployedRoscas;\n\n    function createRosca(uint cycleTotal, uint participants, string memory description) public {\n        Rosca newRosca = new Rosca(cycleTotal, participants, msg.sender, description);\n        deployedRoscas.push(newRosca);\n    }\n\n    function getDeployedRoscas() public view returns (Rosca[] memory) {\n        return deployedRoscas;\n    }\n}\n\ncontract Rosca {\n\n    struct Participant {\n        uint amount;\n        bool wonCycle;\n        bool set;\n        mapping (uint => uint) contributions; //tracks contributions for this participant per cycle\n    }\n\n    struct Summary {\n      address manager;\n      uint cycleContribution;\n      uint nrOfParticipants;\n      uint activeParticipants;\n      uint currentCycle;\n      uint timestamp;\n      uint funds;\n      uint fundsRequiredForCycle;\n      address payable [] participants;\n      string description;\n    }\n\n    struct Cycle {\n        uint currentAmount; //currently collected in cycle\n        uint cycleAmount; //needed to complete cycle\n        bool completed;\n        uint started;\n        mapping (address => uint) bids;\n    }\n\n    uint public cycleContribution; //base amount per participant per cycle\n    address payable public manager;\n    uint public nrOfParticipants;\n    uint public currentCycle;\n    uint public timestamp;\n    string public description;\n    address payable [] public addresses;\n    mapping (address => Participant) public participants;\n    Cycle[] public cycles;\n\n    modifier stillActive() {\n        require(currentCycle < nrOfParticipants);\n        _;\n    }\n\n    modifier isManager() {\n        require(msg.sender == manager);\n        _;\n    }\n\n    constructor(uint cycleTotal, uint participants, address payable creator, string memory descr) public {\n        cycleContribution = cycleTotal / participants;\n        manager = creator;\n        nrOfParticipants = participants;\n        currentCycle = 0;\n        timestamp = now;\n        description = descr;\n\n        Cycle memory newCycle = Cycle({\n            currentAmount: 0,\n            cycleAmount: cycleTotal,\n            completed: false,\n            started: now\n        });\n\n        cycles.push(newCycle);\n    }\n\n    function getSummary() public view returns (Summary memory) {\n\n      Summary memory cycleSummary = Summary({\n        manager: manager,\n        cycleContribution: cycleContribution,\n        nrOfParticipants: nrOfParticipants,\n        currentCycle: currentCycle,\n        activeParticipants: addresses.length,\n        timestamp: timestamp,\n        funds: address(this).balance,\n        fundsRequiredForCycle: cycles[currentCycle].cycleAmount,\n        participants: addresses,\n        description: description\n      });\n\n      return cycleSummary;\n    }\n\n    function getParticipants() public view returns (address payable [] memory) {\n      return addresses;\n    }\n\n    function getCycle(uint cycleNr) public view returns (uint, uint, bool, uint) {\n      return (\n        cycles[cycleNr].currentAmount,\n        cycles[cycleNr].cycleAmount,\n        cycles[cycleNr].completed,\n        cycles[cycleNr].started\n      );\n    }\n\n    function enter() public payable {\n        require(currentCycle == 0);\n        require(msg.value >= cycleContribution);\n        require(!participants[msg.sender].set);\n        require(cycles[currentCycle].currentAmount < cycles[currentCycle].cycleAmount);\n\n        Participant memory newParticipant = Participant({\n            amount: cycleContribution,\n            wonCycle: false,\n            set: true\n        });\n\n        addresses.push(msg.sender);\n\n        participants[msg.sender] = newParticipant;\n        participants[msg.sender].contributions[currentCycle] = msg.value;\n\n        cycles[currentCycle].currentAmount += msg.value;\n\n    }\n\n    function contribute() public payable stillActive {\n        require(msg.value >= participants[msg.sender].amount);\n        require(participants[msg.sender].set);\n        require(participants[msg.sender].contributions[currentCycle] == 0); //make sure this participant has not yet contributed to this cycle\n\n        addresses.push(msg.sender);\n\n        cycles[currentCycle].currentAmount += msg.value;\n    }\n\n    function bid(uint participantBid) public stillActive {\n        require(address(this).balance == cycles[currentCycle].cycleAmount);\n        require(participants[msg.sender].set);\n        require(cycles[currentCycle].bids[msg.sender] == 0);\n        require(participantBid > 0);\n\n        cycles[currentCycle].bids[msg.sender] = participantBid;\n    }\n\n    function endCycle() public stillActive isManager {\n        require(address(this).balance == cycles[currentCycle].cycleAmount);\n\n        //determine winning bid\n        uint highestBid = 0;\n        address payable winner;\n\n        for(uint i = 0; i < addresses.length; i++) {\n            if ( cycles[currentCycle].bids[addresses[i]] > highestBid ) {\n                highestBid = cycles[currentCycle].bids[addresses[i]];\n                winner = addresses[i];\n            }\n        }\n\n        if ( highestBid == 0 ) { //we do not have a cycle winner, pick one randomly\n            winner = manager;\n        }\n\n        participants[winner].amount = cycleContribution + highestBid;\n        participants[winner].wonCycle = true;\n        winner.transfer(address(this).balance);\n\n        cycles[currentCycle].completed = true;\n\n        // Start new cycle, if contract is still ongoing\n        if (currentCycle < nrOfParticipants) {\n\n          Cycle memory newCycle = Cycle({\n              currentAmount: 0,\n              cycleAmount: cycles[currentCycle].cycleAmount + highestBid,\n              completed: false,\n              started: now\n          });\n\n          cycles.push(newCycle);\n          currentCycle += 1;\n        }\n    }\n\n    function resetCycle() public isManager {\n\n        for(uint i = 0; i < addresses.length; i++) {\n            if (participants[addresses[i]].contributions[currentCycle] > 0) {\n                addresses[i].transfer(participants[addresses[i]].contributions[currentCycle]);\n\n                //reset this cycle's contribution for this participant\n                delete participants[addresses[i]].contributions[currentCycle];\n            }\n\n            // if first cycle, remove participant from mapping\n            if (currentCycle == 0) {\n              delete participants[addresses[i]];\n            }\n        }\n\n        //if we are in cycle 0, remove participants address from circle contract\n        if (currentCycle == 0) {\n          //delete participants;\n          delete addresses;\n        }\n\n        // reset cycle\n        cycles[currentCycle].currentAmount = 0;\n        cycles[currentCycle].completed = false;\n\n        //reset bids in current cycle\n\n    }\n\n}\n",
  "sourcePath": "/Users/mattijsnaus/Documents/code/Rosca/contracts/Rosca.sol",
  "compiler": {
    "name": "solc",
    "version": "0.5.16+commit.9c3226ce.Emscripten.clang"
  },
  "schemaVersion": "3.3.4",
  "updatedAt": "2021-04-15T06:45:22.177Z",
  "devdoc": {
    "methods": {}
  },
  "userdoc": {
    "methods": {}
  }
}